:020000040000FA
:1000000060120010D5000000E5000000DD000000D7
:1000100000000000000000000000000000000000E0
:10002000000000000000000000000000DF000000F1
:100030000000000000000000E1000000391A00008C
:10004000E5000000E500000000000000E500000001
:10005000E5000000E500000000000000E5000000F1
:10006000E5000000E5000000E5000000E5000000FC
:10007000E5000000E5000000E5000000E5000000EC
:10008000E5000000E5000000E5000000E5000000DC
:10009000710F0000E5000000E50000000000000016
:1000A00091150000A5150000BD150000D515000034
:1000B000ED150000E5000000E5000000E50000008F
:1000C0000348854600F0A4FB004800478127000054
:1000D000601200100448804704480047FEE7FEE72E
:1000E000FEE7FEE7FEE70000A11A0000C1000000E5
:1000F00030B50B46014600202022012409E00D46C0
:10010000D5409D4205D31D469540491B2546954047
:1001100040191546521E002DF1DC30BD70B500248B
:100120002546002801DA01244042002901DA012590
:100130004942FFF7DDFFAC4200D04042002C00D026
:10014000494270BDF0B51FB40646002082B0054696
:100150004024019100901BE0019922460F46304651
:1001600000F056F9049A059B801A994110D3104665
:100170001946224600F03CF9361A8F410197224673
:1001800001200021009F00F033F938184D41009004
:100190002046641E0028DFDC019B00982946324679
:1001A00007B0F0BD03460B439B0703D009E008C925
:1001B000121F08C0042AFAD203E00B780370401C17
:1001C000491C521EF9D27047D2B201E00270401CA5
:1001D000491EFBD270470022F6E710B513460A46C7
:1001E00004461946FFF7F0FF204610BD024670B5E1
:1001F0004A40D30FDB0740002DD04A002AD0010E21
:10020000140E000212020919400A520A8418E5016C
:1002100004465443000A120A2E045043A4194219FA
:10022000200CC543AA18120C0125AD03521C52190B
:1002300012047F39240400D0521C104301D4400022
:10024000491EC2B20C06C0092018401C4008802A72
:1002500002D003E0002070BD40084000002900DA11
:100260000020184370BD420005D04200120E5242D9
:100270008A4201DB00207047C90508187047C21781
:10028000C10F504010B54018CA079623002100F056
:10029000D8F810BD4A0009030123090B1B051943B7
:1002A000094B10B5520D9A4201DA002010BD064BE1
:1002B00034339A4203DC9A1A00F0AAF810BD0349BD
:1002C0005118884010BD0000FF030000CDFBFFFF68
:1002D000C20FD207400040080BD0C10D0723DB013D
:1002E000C91840020905400A1143C20840071143DA
:1002F000704700200146704770470000FFFFFFFF76
:10030000F0B50C465C4085B0E40FE40703944C0064
:100310000026640859009446490802460296224382
:1003200021D062460A431ED06200570D4A000E03D8
:100330002303550D012402462C492405781B1B0B71
:10034000360B401823432643614600901C46501A42
:10035000B44103D30098401C009002E0921800982A
:100360005B41002803DA0020014605B0F0BD002003
:10037000012109050746864611E064461D46141B07
:10038000B54106D36546521BB341744607430C433F
:10039000A646CD0740084908284392185B41054608
:1003A0000D43EAD11046184313D060461946504019
:1003B0007140084306D06046101AB34106D20122AC
:1003C000002306E000220123DB0702E00122D243E2
:1003D0005310009874460105381C6141029C039D2E
:1003E0000019694100F066F8BFE70000FD03000056
:1003F00010B5202A04DB0146203A9140002010BDB0
:10040000914020239C1A0346E3401943904010BDBD
:1004100010B5202A04DB0846203AD040002110BD48
:100420000B46D340D0402024A21A914008431946DD
:1004300010BD002904DA401C490001D140084000E9
:10044000704770B40024050C05D11024000402D1BB
:10045000002921D01124050E01D100020834050F16
:1004600001D10001241D850F01D18000A41C0028AA
:1004700001DB4000641C002908D020252E1B0D46FE
:10048000F540A14000D001212943084301061B1B70
:10049000000ADB1D02D5002070BC7047DB05181870
:1004A00080180029F8DA401C4900F5D170BC4008DA
:1004B0004000704710B5002B08DA0024401C614151
:1004C00092185B411A4301D14008400010BDF0B5BD
:1004D0001FB482B005460C0003D0084601F07CFB37
:1004E00002E001F079FB20300246009021462846C8
:1004F000FFF77EFF049B059A04460F4618431143FD
:10050000084314D0184610431BD0009840210A1A03
:1005100018460599FFF77CFF05460E46009A059997
:100520000498FFF765FF084305D0012004E020464A
:10053000394607B0F0BD0020C11705430E432C43D8
:10054000374300990E986305401A7905E40A0022A2
:100550000C43FD0A0A3002D500200146E9E70105F7
:10056000101969410C9C0D9D00196941FFF7A2FF0C
:10057000DFE70000F0B507460846584087B0C00FD7
:10058000049048000E46590040084908BC1A8841AA
:1005900005D2384631461E4617460B4602465800DD
:1005A000400810434CD0300D039040055900400DD9
:1005B000490D0590401A0290402872DA1803012173
:1005C000000B09050843019004980092002805D00B
:1005D00001995242002088410092019002984021E6
:1005E0000A1A01990098FFF703FF05460C466B466F
:1005F00007CB00F01FF9C0197141039A0E0D0023BB
:10060000D71756401A467A40164344D0049A002A17
:100610002DD0029A012A039A15DC1205C01A9141C5
:1006200001263605001C7141D20F059ED2070093AA
:10063000019202962A462346FFF749FF07B0F0BD14
:1006400038463146FAE71605224A0F46B218C01A54
:10065000B74101210905001C4F4100187F41114697
:1006600018187941E20F10436D19644113E0E20755
:100670006D0815436408C2071443039A0126120546
:10068000C01A91413605001C7141CE074008304325
:100690004908C01851412A462346FFF70BFFCDE712
:1006A000FFE7049801224000C117121A00238B4172
:1006B00004983146C417381AA141EEE730B401243A
:1006C000E407634030BC55E730B40124E4076140DF
:1006D00030BC4FE70000E0FFF0B51FB488B00B99C5
:1006E0000998002448400999C00F49004908099118
:1006F000C0070B990090490049080B910999089887
:10070000A64608431CD00B990A98084318D00998AC
:1007100001244000420D4800410D099824050003C2
:10072000000B204309900B980003000B20430B9013
:1007300050181C494018002201901446104605E04C
:10074000002001460DB0F0BD032801DA034600E0A9
:1007500003239C46C11A0AAE0AE05F0008ADED5BB8
:100760004F00F75B7D430027AA187C41491C5B1EA4
:100770006145F2DD410004AB5A522104120C0A43D8
:10078000240C401C0828DFDB019802900099704679
:1007900001910090059B049A07990698FFF797FE30
:1007A000D0E700000DFCFFFF4A0009030123090BFD
:1007B0001B0519430A4B10B5520D9A4202DA00206C
:1007C000014610BD064B34339A4203DC9A1AFFF7F8
:1007D0001FFE10BD034BD218FFF70AFE10BD00002C
:1007E000FF030000CDFBFFFF10B5002904DB01244F
:1007F000E40740428C412146002B04DB1C460123C8
:10080000DB075242A341994200D1904210BD000043
:10081000064C0125064E05E0E36807CC2B430C3C53
:1008200098471034B442F7D3FFF74EFC747A0000B7
:10083000947A000010B5202A06DBCB170846203A30
:100840001041C1170B4306E00B461341D040202452
:10085000A21A91400843194610BD000070B5214C02
:1008600005460021204600F0FFF8204600F026F95A
:1008700020684000C017401CFAD01B4E00F076F9EB
:100880003146FFF735FC401EC1B22068000A000265
:1008900008432060002D1DD01448A060072000F000
:1008A0003BF9162000F068FA072000F027F9A06E47
:1008B000A066616E05204901490901436166002176
:1008C000204600F0CBF8012200219206204600F0DD
:1008D000EBF870BD0648A060072000F01DF90F205E
:1008E000E0E7000000C0014080C3C9010002000829
:1008F00004000008401E0449C2B20868000A000251
:10090000104308607047000000C0014010B5134953
:100910000C1F00281BD012488860072000F0FCF84C
:100920000F2000F029FA072000F0E8F8A16E204619
:10093000A166626E0621520152090A4362660121D4
:10094000084A49041160012100F088F810BD0648EA
:100950008860072000F0E0F81620E2E704C00140BC
:100960000400004000E100E00002004070B51D4CB2
:100970000125216880201C4A114008432060152071
:1009800000F0EEF9162000F0EBF96561042111206A
:1009900000F0FEF90021122000F0FAF92068134956
:1009A00088432060124C204600F040FA2068042161
:1009B000104A104008432060E1200121400300F06C
:1009C0004DF9E1214902204600F076FA20680949F4
:1009D0007C31084028432060606807490840606017
:1009E00070BD000080800440FFFFEF25800010DA1A
:1009F0000080064001DAFC000603010010B5FFF795
:100A0000B5FF0848016C084A11430164016CC0221B
:100A10001143016405490868054A1040402210430B
:100A2000086010BD80C10040CFFEFFFF8080044001
:100A3000FFFFEF2501B501226946024800F02AFABE
:100A400008BD00000080064089000818826802493D
:100A50008A438260704700000080F38310B5012252
:100A6000D20700F021F810BD70B504460D461020E5
:100A700000F0C4F90548012102680906044B1A4038
:100A80001143016000206066256070BD80800440D5
:100A9000FFFFEF25890009188868024B18401043B2
:100AA00088607047FF7F0CFC890009188868024B3A
:100AB0001840104388607047FF7F0CFC70B50446F7
:100AC0000068012189070843206020688915884350
:100AD0002060094D00F04AF82946FFF709FB401E47
:100AE000C1B22068000A000208432060206801218A
:100AF00089028843206070BD20A1070004490B686B
:100B0000012282400348024393430B607047000078
:100B100080800440000010DA01218140034802680F
:100B2000034B1A401143016070470000808004406D
:100B3000FFFFEF2510B50B490020096B8907890FCE
:100B400008D0012908D0022909D0032901D100F0D9
:100B500033F810BD044810BD00F014F810BD00F0CB
:100B600057F810BD40800440001BB70010B5FFF7D8
:100B7000E1FF0349896BC9B2FFF7BAFA10BD000063
:100B800040800440084800688007800F05D0012895
:100B900005D0032805D0002070470448704704485A
:100BA00000E004480068704740800440001BB70024
:100BB000782E00007C2E000000B504488168FFF705
:100BC000E1FFC906C90E491C484300BD008004402E
:100BD00010B50E4840690406240E14D0FFF7AAFF92
:100BE0002146FFF785FA094A4032116BC9B2FF2945
:100BF00008D1516B0023CAB2010EFF32000201324C
:100C0000FFF7A0FA10BD002010BD00008080044056
:100C100010B50648406AC1050A0FC006810E900053
:100C2000034A891C1058FFF763FA10BD0080044086
:100C3000802E0000034908630020486301204863B8
:100C4000704700004080044003490860002048606D
:100C5000012048607047000040800440F8B50D4610
:100C60000646FFF767FF07463146FFF741FA0100E6
:100C700000D10121114AC8B25061104C4034002DFE
:100C800017D00E48803843680D4D0422AB434360B3
:100C900043680C4D2B401A434260FF2020633846C6
:100CA000FFF726FA00023146FFF722FAC0B260636E
:100CB00001E000202063FFF78BFFF8BD8080044037
:100CC0000420FEFFFFDF010010B5012494408900DD
:100CD0000818002B02D04721C90101E0092189022F
:100CE0004018046010BD000070B5164D0E46294630
:100CF000FFF7FEF984B229463046FFF7F9F982B2D0
:100D0000002528461E2A01D8602C01D9002070BD7C
:100D10000D4B0C2141435E5AA6420DD1C91849889A
:100D2000914209D1094980B208800C21484301252C
:100D3000C01801F06DFF02E0401C4728E9D32846A7
:100D400070BD000040420F00C02E00004C0000109B
:100D50000268FF23DB4319438A43026070470000A7
:100D60000121814003480268D201D2091143016088
:100D700070470000C0C1004004490B680122824056
:100D80007F204006024393430B607047C0C1004080
:100D9000020700098300064810B5520E1B18186898
:100DA000FF249440A04391400143196010BD00000E
:100DB00000C00040074A53680121814006480843AB
:100DC000834353605068044BDB4318400143516038
:100DD00070470000008004400020FEFF054B9A6B26
:100DE00005490A4008406D211043090208439863F1
:100DF0007047000000820440FF800000054A916BAC
:100E0000054B1940184081436D2000020143916356
:100E10007047000000820440FF800000024910B5C6
:100E20004800FFF761FF10BD80C3C90110B504463B
:100E300001F096FC0121814009480268094B1A40E3
:100E4000114301600848844201D1032005E00748AE
:100E5000844201D1042000E00520FFF7ABFF10BD64
:100E600080800440FFFFEF250040064000800640E0
:100E700030B503460020064D03E00C78DC61401CD1
:100E8000491C904203DA9C682C406407F5D430BDBD
:100E90007FFD0100F0B51546074600260C4607E029
:100EA0002A4621463846FFF7E3FF2D1A3618241844
:100EB000002DF5DC3046F0BD70B50D460446FFF759
:100EC00087FE2901FFF714F9401E206270BD000063
:100ED000F8B505464B1E0C461D200093FFF71CFE7F
:100EE000194A002010601948906019485221016089
:100EF000260418498368B6467118174F3B400B43C8
:100F00008360124BA6001548361F14337619144F10
:100F1000C1C3104B103373443B607860009B1B19B6
:100F20009B005B19BB600F4BFB6002C3C1C3012177
:100F300002209064106211600B49002048600B4948
:100F400050010860F8BD000000800050000800104B
:100F5000108400501B42FFFF3FF3FF0310C001400D
:100F600030090010200900100080024000E100E07C
:100F7000F8B5114C206C02268003800B0125002857
:100F800000D02664A06D0D4F8003800B06D0A665AF
:100F90000B48002105703846FFF756FD206E800390
:100FA000800B06D026660748002105703846FFF7FB
:100FB0004BFD05488570F8BD0080005000C0014021
:100FC00001000010020000105400001010B504468B
:100FD0000D487D2109010068FFF78AF860430B493D
:100FE000401E884201D9012010BD094948610020F6
:100FF000886101220A610A69D30701D0D203FAD5B8
:1010000008618861002010BD50000010FFFFFF0044
:1010100000E000E0C106C90E0120884001490860D7
:101020007047000000E100E010B50021084B0A46BF
:101030000020C400E418401CC0B262548028F8D3D9
:10104000491CC9B20829F3D300F0DEF810BD000036
:101050004009001030B50C460546012200F014F896
:10106000641C681EE1B2C0B2012200F00DF8E1B2CA
:101070000122284600F008F86D1CE1B2E8B2012216
:1010800000F002F830BD000030B5CC084B075B0F14
:1010900001259D40EBB2074DC0004519C808285CEA
:1010A000002A01D0184302E0C0431843C04328552A
:1010B00030BD00004009001010B500F07DF8052497
:1010C000640700202075C820FFF780FF01202075ED
:1010D0000021AE2000F03FFA0021084600F03BFA64
:1010E0000021102000F037FA0021402000F033FAF0
:1010F0000021812000F02FFA0021CF2000F02BFAF0
:101100000021A12000F027FA0021C82000F023FAD6
:101110000021A62000F01FFA0021A82000F01BFAF1
:1011200000213F2000F017FA0021D32000F013FA2D
:101130000021084600F00FFA0021D52000F00BFA3C
:101140000021802000F007FA0021D92000F003FAE6
:101150000021F12000F0FFF90021DA2000F0FBF976
:101160000021122000F0F7F90021DB2000F0F3F954
:101170000021402000F0EFF90021202000F0EBF9E1
:101180000021022000F0E7F900218D2000F0E3F9B2
:101190000021142000F0DFF90021A42000F0DBF989
:1011A0000021A62000F0D7F9FFF73EFF0021AF2075
:1011B00000F0D1F910BD000010B511490868114ABE
:1011C00010404022104308600524640701230F22C9
:1011D00000212046FFF778FD01231322002120463D
:1011E000FFF772FD0123142200212046FFF76CFD5A
:1011F0000123182200212046FFF766FD10BD0000E4
:1012000080800440FFFFEF2570B5104E002420467B
:10121000B030C0B2002100F09EF90021084600F075
:101220009AF90021102000F096F90025E8008019B5
:10123000005D012100F08FF96D1CEDB2802DF5D31A
:10124000641CE4B2082CE2D370BD00004009001019
:10125000FFB589B00998079058081C460E460591BD
:101260000690082B0DD0E008610700D0012140183E
:1012700006994843C0B2203A0190D0B203900020B2
:1012800047E00620F7E7082C11D00C2C14D0102CC6
:1012900017D0182C41D103982421484321494118E3
:1012A000009800270D5CE8070FD0129A11E0039810
:1012B000062148431C49F2E703980C2148431B4987
:1012C000EDE703981A490001E9E71298002826D0B3
:1012D000002231460998FFF7D7FE761C7F1C6D0867
:1012E000FFB2F6B2082FDED30998401CC0B20990B5
:1012F000082C0AD00799411A0698814205D107980F
:10130000099005980830C0B205900098059E401CD1
:10131000C0B2019900908842B5D30DB0F0BD012252
:10132000D7E70000A03E0000143200003C3400006B
:10133000B038000078B500224A4B14460021CD0099
:10134000ED18491CC9B2AC548029F8D3521CD2B252
:10135000082AF3D300285CD0022600250122294662
:101360003046FFF791FEAD1CEDB2322DF6D9403676
:10137000F6B2422EF1D90026022501223146284636
:10138000FFF782FEAD1CEDB2422DF6D93236F6B231
:10139000322EF1D9022534212846FFF75BFE1035A5
:1013A000EDB2422DF7D9304D0823E878382180007E
:1013B000401942690020009400F0B0F828464030FF
:1013C0000079082380004019C26E38211E20009445
:1013D00000F0A4F8A8780094002839D0082323A2AC
:1013E00038213C2000F09AF828780094002832D068
:1013F00008231FA23821542000F090F86878009448
:1014000000282BD008231BA238216C2000F086F87E
:1014100078BD00260025012229463046FFF734FE1C
:10142000ED1CEDB2302DF6D90C36F6B26C2EF1D99A
:1014300000260025012231462846FFF725FEED1C37
:10144000EDB26C2DF6D90C36F6B2302EF1D9AAE7F2
:10145000082309A2C4E7082308A2CBE7082308A2AF
:10146000D2E70000400900106405001063683100F5
:1014700073706D007374700063683000776176007C
:1014800072756E00FFB584B0002002900498019040
:101490000C460091D808590700D001214018079048
:1014A000002033E000262BE002990D98475C481C91
:1014B00080B200250290F80701D00E9A03E00E9842
:1014C000002829D0002221460498FFF7DDFD641C86
:1014D0006D1C7F08EDB2E4B2082DECD3049801999D
:1014E000401CC0B20490411A0698814205D101986F
:1014F000049000980830C0B20090761C009CF6B2B0
:1015000006988642D0D30398401CC0B20799039036
:101510008842C7D308B0F0BD0122D4E7FFB581B03F
:101520001E46154604465F080BE00A9800903346B5
:1015300020460299FFF78CFE082E09D03819C4B254
:101540006D1C2A78104620385E28EED905B0F0BD13
:10155000A41DE4B2F4E705225207002900D00121BE
:10156000D1740021D17600231376030601D501231F
:1015700000E00023D373012313764006491C000EBC
:10158000C9B20829EFD30120D076D074704700008B
:10159000024901204862024908707047004000A0DB
:1015A0005C00001003490220486203490120487092
:1015B00070470000004000A05C00001003490420B8
:1015C000486203490120887070470000004000A075
:1015D0005C00001003490820486203490120C870DC
:1015E00070470000004000A05C000010034910207C
:1015F000486203490120087170470000004000A0C4
:101600005C000010052801D3FF207047044A052123
:10161000105C4907085C0028F7D0012070470000E3
:1016200057000010F8B500202349244D244E012214
:10163000044687000B5C7F19BB670F5C1346BB40F9
:101640003360401CC0B20528F3D31E4D012128464B
:10165000FFF77EFB0120686102212846FFF778FB37
:101660000220686104212846FFF772FB04206861AC
:1016700008212846FFF76CFB0820686110212846E6
:10168000FFF766FB102068611820FFF7C3FC1920E4
:10169000FFF7C0FC1A20FFF7BDFC1B20FFF7BAFCC8
:1016A0001C20FFF7B7FC04490020491D0C54401CC6
:1016B000C0B20528FAD3F8BD5700001000810440DD
:1016C000002400A0004000A0F8B5064600780027DE
:1016D0000D4C0D46012806D1A078FFF7BFF8A07881
:1016E000FFF714F93770287801280BD106484030ED
:1016F00000798000001980300069FFF7FBF800F0E6
:1017000045F92F70F8BD00006405001010B5D02118
:101710000648FEF760FD05480021017041708170A8
:1017200000F02EF800F004F810BD00006405001071
:10173000F0B589B024220F496846FEF733FD0E4FFD
:1017400000246E46A1007058CD190C4AA864515867
:10175000E9660A21FEF7CCFC8035641C2861092C5F
:10176000F0D3054800214030017100F00FF909B0B5
:10177000F0BD0000542E000064050010240000108D
:10178000F0B5164B8BB00FCB04AD0FC5144F002432
:10179000A10004A84058CE19124A706051587161D6
:1017A0000C21FEF760FDFEF793FD05460E4A0F4B38
:1017B0000191FEF7A5FDFEF76DFD706228460C4A0B
:1017C0000C4B0199FEF79CFDFEF764FD641C7063F1
:1017D000042CDDD30320F8700BB0F0BD442E0000C4
:1017E0006405001014000010CCCCCCCCCCCC434011
:1017F0006666666666660A4030B585B005460124B1
:10180000082320A2042144200094FFF787FE2B46E2
:101810001EA2102101A800F0C5F9082301AA042185
:101820005E200094FFF77AFE082319A214214420B9
:101830000094FFF773FE0823174A14215E200094DA
:10184000FFF76CFE082315A21E2144200094FFF729
:1018500065FE114A082308321E215E200094FFF71E
:101860005DFE08230FA2282144200094FFF756FEB6
:10187000094A0823083A28215E200094FFF74EFE0B
:1018800005B030BD4D61673A0000000025640000DE
:101890004469763A00000000240600104D61783A51
:1018A00000000000536D703A00000000F0B50646DD
:1018B00012480024C17885B089000D18012730191D
:1018C000FEF7DDFC6968FEF791FCFEF701FD019172
:1018D00000900BA2082102A800F064F90420001B6C
:1018E0000C214843C1B2082302AA6E200097FFF7DB
:1018F00015FE641C052CE2DB05B0F0BD640500108C
:1019000025312E316600000010B586B0164801243E
:10191000009020233A22032101940420FFF7B2FD16
:1019200011482023E83000903C22042101944020FB
:10193000FFF7A8FD0C230DA22C210D200094FFF72A
:10194000EDFD0F480FA28368102102A800F02AF9CC
:10195000082302AA38211E200094FFF7DFFDFFF7BD
:1019600053FC06B010BD00006C2C00004E585020F7
:101970004C504338323420494E534944450000000E
:10198000000000102573204A61636B00F8B52548FC
:1019900024490079403980004018816C2248FEF7C4
:1019A000A7FB204C034640346063204680381F4923
:1019B000064605460746B836C035C8378B421DD99E
:1019C0007D21C9001846FEF793FB034618A20821A3
:1019D000304600F0E7F87D21C900606BFEF788FB18
:1019E000C30813A20821284600F0DCF87D21090174
:1019F000606BFEF77DFB03460DA20EE00DA20821F1
:101A0000304600F0CFF8606B0AA2C30808212846D0
:101A100000F0C8F8606B07A243080821384600F0C0
:101A2000C1F8F8BDA4050010001BB70060EA000073
:101A300025646B002564000070B500201249134D29
:101A400002460A230C5C002C04D00A542C5C002CA7
:101A500000D12B54401CC0B20528F3D30B4E0024F8
:101A60000C3E285D00280AD0401E0006000E2855B6
:101A700005D12046FFF7C6FD002800D13470641C54
:101A8000E4B2052CEDD370BD5C0000100C0000101A
:101A900010B5FFF76BF80149486010BD4C0000100D
:101AA00010B50548012102688904044B1A4011430E
:101AB0000160FFF7B3F910BD80800440FFFFEF2500
:101AC000F3B582B0044601460398802803D0002075
:101AD000C04304B0F0BD202326480090264D01935A
:101AE00020467F2200260027AE5FC75FAD1C7E43E5
:101AF000F61306801646521E801C92B2002EF1D1BB
:101B00001E48002215460E8806804580039E001D53
:101B1000891C521CB242F6DB194A3146174800F0C4
:101B20002AFD1648009B019A039900F0E8FC13492E
:101B30000026002202208A5E085E524340431518A8
:101B400000200246091D01239B07D3401F18AF4206
:101B500003DCED1B4010184300E04010921C202ACB
:101B6000F1DB20800398A41C761C8642E1DB002078
:101B7000AFE700006250000004790000C00D0010C3
:101B8000245800000FB410B503A9044B044A02986E
:101B900000F00EF910BC08BC04B01847552700002F
:101BA000480000100FB41CB50246002007AC002905
:101BB0000BD0491E01910092064B6A4621460698B9
:101BC00000F0F6F8009A002111701CBC08BC04B0AB
:101BD00018470000E92400002021020C01D0102148
:101BE0001046020A01D010460839020901D01046F9
:101BF000091F820801D01046891E420801D0881EA4
:101C00007047081A704730B47446641E2578641C07
:101C1000AB4200D21D46635D5B00E31830BC184741
:101C200002E008C8121F08C1002AFAD1704700203C
:101C300001E001C1121F002AFBD17047F0B51FB4AB
:101C400086B00998089A030D0021024314D0514828
:101C5000514A1818504305141198012810981AD0A9
:101C6000281A401C00264D4F4D49009601910490C2
:101C7000002812DA444211E01198012449A30128F6
:101C800001D11098C1430698119A84600360C26024
:101C900041600BB0F0BD4042E4E70446210500205E
:101CA0003F4A001C51410391029012E0E00707D027
:101CB00032463B4601990098FEF70EFD01910090D7
:101CC00032463B4610461946FEF706FD06460F46CD
:101CD0006410002CEAD10498039B0028029A099909
:101CE000089806DAFEF7F8FC019B009AFEF7F4FC70
:101CF00005E0FEF705FB019B009AFEF701FB044699
:101D00000E460022284BFEF76FFD03D80020C0438B
:101D1000014607E00022254B20463146FEF72AFC0B
:101D2000FEF742FD102409E0002C0ADB0A22002302
:101D3000FEF708FA079B30321A55641E02460A4322
:101D4000F2D11122641C079B121B1C19119B012B41
:101D500003D0012308430ED10AE0084304D0112028
:101D600010900020119077E71098151A6D1E0BE067
:101D70001098824202DD00236D1C03E0824201DAEA
:101D800000236D1E002BEED0069811998260C16071
:101D900030C07EE701FCFFFF104D00000000144042
:101DA0000000F03F300000000000F0430000E03F82
:101DB000FFB597B00646002518E2252877D1002404
:101DC0002746FD49049400E00443761C3278012044
:101DD000203A90400842F7D130782A280ED00222CB
:101DE000307801463039092916D804990A23594315
:101DF000303940181443761C0490F1E7189802C853
:101E000004911890002904DA012040030443484259
:101E1000049002200443761C30782E2814D104202C
:101E200004437078761C2A2809D11898761C80C83B
:101E3000189009E00A214F43303FC719761C3078CB
:101E4000014630390929F5D930786C2810D006DCE4
:101E50004C281AD068280ED06A2817D104E07428BC
:101E600013D07A2812D110E00120400504430CE081
:101E70000121090501E0032109050C437178814224
:101E800003D1012000052418761C761C30781190AF
:101E900066280BD013DC58287DD009DC00287BD0C5
:101EA0004528F6D04628F4D047281AD1A5E118E0F5
:101EB000632835D0642870D0652812D19DE1702840
:101EC0006CD008DC6728F1D069287BD06E280DD053
:101ED0006F2806D1BAE073282ED0752871D07828E3
:101EE00059D01A9A199990476D1C7EE16002400FF3
:101EF000022809D003280DD00428189801680DD0B5
:101F00000D60001D189070E11898EA1701680D60C7
:101F10004A60F6E7189801680D80F2E70D70F0E767
:101F200018986A4601781172001D189000205072AE
:101F300002A80090012005E0189802C8189000201F
:101F40000091C04361070DD5002101E00199491CB2
:101F50000191B94212DA8142F8DB009A515C002902
:101F6000F4D10BE0002101E00199491C019181426B
:101F7000FADB019A0099895C0029F5D1019904984E
:101F80001A9B471A21463846199A00F097FA019988
:101F9000401945180BE04FE02CE113E04EE00098AB
:101FA00000990078491C00911A9A19999047019854
:101FB000401E0190401CF2D1214638461A9B199AC6
:101FC00010E137E00A200021009001916002410FEA
:101FD000022907D0189A01CA1892C21794460329F9
:101FE00008D00AE01898C01DC108C90005C9189199
:101FF000944607E000B2C2179446042902D140B2C9
:10200000C1178C4600226146944506DA0A46002133
:10201000404291418C462D2102E0210504D52B211F
:102020006A461173012103E0E10701D02021F7E79F
:10203000029155E00A200AE0102008E010200090EC
:102040000021042004430191082703E00820002117
:10205000019100906002410F022907D0189A01CA2D
:10206000189200229446032908D008E01898C01D51
:10207000C108C90005C91891944603E080B204293B
:1020800000D1C0B200210291210729D511997029F0
:1020900006D0009A1021019B4A401A4305D00EE059
:1020A00040216A461173012108E06146014306D0D0
:1020B00030216A4611731199517302210291009ADD
:1020C0000821019B4A401A430AD16146014301D1CC
:1020D000610705D530216A46117301217F1E0291E7
:1020E0001199582904D035A10E910DA90D910DE03B
:1020F00037A1F9E76146019B009AFEF723F80E9B92
:102100008C469B5C0D9A521E0D92137061460143E2
:10211000F0D10D9805A9081A20300190600703D569
:1021200001200004844300E001270198874201DD7B
:10213000381A00E00020019900904118029809180F
:102140000498401A0490E00306D421461A9B199A79
:10215000049800F0B3F94519002706E003A81A9A7D
:10216000C05D199990476D1C7F1C02988742F5DB72
:10217000E0030CD521461A9B199A049800F09EF9A9
:10218000451904E01A9A3020199990476D1C00995E
:10219000481E00900029F5DC08E00D980D990078A4
:1021A000491C0D911A9A199990476D1C0199481E66
:1021B00001900029F1DC63E109280100303132335C
:1021C0003435363738396162636465660000000073
:1021D000303132333435363738394142434445465D
:1021E0000000000000F05AF94519761C30780028EC
:1021F00000D0E2E528461BB0F0BD600700D40627FA
:102200001898C01DC108C90048680A680831C30F82
:10221000DB071891190001D09CA108E0210501D528
:102220009BA104E0E10701D09AA100E09AA143003C
:1022300011985B08109165280CD006DC452809D060
:1022400046281DD0472841D141E0662818D067288C
:102250003CD13CE00021112F01DB112000E0781C73
:102260000191009008A911A8FFF7E8FC13990591C6
:102270000021119A15927F1C12980197009150E04D
:102280000120C00703900120019008A9009711A820
:10229000FFF7D4FC139A149905920022119B009227
:1022A00012981593059A0192002901D0104602E078
:1022B000791C40180190381A01D5019804E0404279
:1022C000401E0090781C0190C01B029043E0012F3B
:1022D00000DA01270021112F01DD112000E038462E
:1022E0000191009008A911A8FFF7A8FC1399059186
:1022F000119A0021129815920091019721070CD490
:102300000599B94201DB019900E00191012904DD41
:10231000159A491E515C302906D0B84201DA011DD8
:1023200005DA0121029115E00199491EEDE7002827
:1023300005DC0099411800910199091A03E0019AFE
:10234000411C914200DD01910099401A401C02900D
:102350000120C0070390200706D40299019881420A
:1023600002DB0020C043029000206946C87707AF17
:10237000012103980337C907884224D00220119015
:102380002B201290039800280CDA404203902D2055
:10239000129007E00A210398FDF7AAFE30317F1E54
:1023A000039039701199481E11900029F2DC0398AE
:1023B0000028EFD1791E129808703078202108404B
:1023C0004530BF1E387006A8C01BC01D0390109872
:1023D0000078002800D00120019941180298C01708
:1023E0000918039809180498401A401E0490E00345
:1023F00006D421461A9B199A049800F05FF84519F3
:1024000010980078002803D01A9A199990476D1CEB
:10241000E00324D521461A9B199A049800F04EF83F
:1024200045191CE00098002807DB009905988842B0
:1024300003DD1598405C199901E0199930201A9A2A
:10244000904700986D1C401C00900298401E02901E
:10245000002804D11A9A2E20199990476D1C0199D1
:10246000481E01900029DDDC05E038781A9A7F1CAF
:10247000199990476D1C0399481E03900029F4DCBC
:1024800021461A9B199A0498ACE600002D00000022
:102490002B0000002000000000000000F8B50446FA
:1024A00000251E461746880404D405E0394620203E
:1024B000B0476D1C641EF9D52846F8BDFFB504462B
:1024C000002581B01E46C80301D5302700E0202733
:1024D000880404D505E038460399B0476D1C641E96
:1024E000F9D5284605B0F0BD4A68002A06D00A682A
:1024F000531C0B6010704868401E48607047FFB561
:102500004A080025511C8C4682B02C46911E2EE0B4
:10251000AC421BD2A60000968659AF000196BE467B
:10252000009EC75987517746019EC6516646A61937
:10253000B6000096865901966646AE19B700BE46AB
:10254000009EC75987517746019EC651A60036188E
:10255000B6467668AD180096AF00C55976467560E8
:10256000009EC651049E1D887600F318A41C8C4260
:10257000CED906B0F0BDFFB54A108FB000231C467F
:102580000A93079146E00A9B119D9B00ED5E06951C
:10259000119D5D190223EB5E0593129D0A9B5B1949
:1025A0000A93234633E09D189F00AD00C65FAC46FA
:1025B000455FB610B646AD10761B754403966E1097
:1025C000C6533E180225755FB646AF1065462E18F5
:1025D00002250C96755FAE10BD1BF6197710764676
:1025E0007780069F039E7E433714059E6E43361404
:1025F000BE196746C653069E75432F14039E059D5C
:102600006E4335140C9E7D1B7580079D5B198B42B4
:10261000C9D3641C9442B6DB129B5B041B0C12935F
:102620004B0855E0521000231C460A9348E00A9BD1
:10263000119D9B00ED5E0695119D5D190223EB5ED9
:1026400005930A9D129BEB180A93234635E09E00E2
:102650009D18875FAD0002970C95455FAE467D1BC8
:102660002FB2BC46029F77447F108753371802264B
:102670000E970C9DBE5F2D1802270D95EF5FF51B81
:10268000BE190E9F76107E80069E674677432DB258
:10269000059EAE466E433F143614BE190C9D674628
:1026A0004653069E75467543059E2D1477433E148A
:1026B000AE1B0D9D6E80079D5B198B42C7D3641CBA
:1026C0009442B4DB129B5B041B0C12930B9B5B10BC
:1026D0000B93022B0792A5DC52109446002320E0B6
:1026E0001A461BE0644614199500465BA400075B7C
:1026F000B646F61B03967646F61946532D18AE4697
:102700006D88261805967688AF1B761975466E80FB
:10271000039E0653059E7780079C12198A42E1D3D7
:102720005B1C6345DCDB13B0F0BD10B57D240346B4
:10273000E40002E0204600F003F85B1EFAD210BD70
:1027400005E001210A46491EC9B2002AFAD1401EFD
:10275000F7D2704710B5C0B2FEF76CF9002010BD7B
:102760000549884201D10E2070470449884201D1B1
:102770000F20704710207047004006400080064040
:1027800086B0002004460390684604700471FFF789
:102790007FF9FEF733F9FEF745FFFEF78DFCFEF7F4
:1027A00043FCFEF7B3FFDE4D80216C70AC70DD485A
:1027B000FEF78EFBDC4CA078FEF750F8A078FEF711
:1027C000A5F8204640300290007980000019803042
:1027D0000069FEF78FF8D548642100680446FDF7CC
:1027E00087FCD349401E88420CD8D2494861D24860
:1027F0000723C2691202120A4E043243C26100204A
:1028000088610B61CD492046FDF772FC0146CCA0E2
:10281000FFF7B8F9D6A3D9A2DBA0A968FFF7B2F9F0
:10282000FFF772F8E248FFF780FFBD4C2078FF28E1
:102830005DD00300FFF7E7F9050420384A5359003B
:10284000B949C878401CC0B2C870042802D0032817
:1028500010D001E00020C87001200390C8788000EB
:1028600040184068FDF734FD02460B46D1A0FFF743
:1028700089F93AE00020F0E7AB484178012934D0EB
:102880000299097908290CD0029A491C1171012179
:102890006A4611710299097989000818816CCAA0E9
:1028A0000FE00021029AF1E79F48417801291CD0EE
:1028B0008178002908D00021817001206A461070BB
:1028C000C7A0FFF75FF910E00121F5E7964801780E
:1028D000002902D00021017007E00121FBE79248A6
:1028E0004178002940D000214170FF2020708C48A1
:1028F0004078002872D08C480078002836D08A4C66
:10290000A07800286BD000208649BB4BE21FF93A23
:1029100085004D5B46002D042D0D6D05ED182D1421
:10292000401C80B295538028F2D38021B348FFF732
:10293000C7F8A078B24E002876D001267602012092
:10294000FEF7F8FC0024AD486100405E2F214843AB
:102950003146FDF7E3FB80B22F2800D92F202F212D
:10296000081AC5B2A71CADE00121BDE70020FEF7A3
:10297000E1FC0023A34A6B4FA04D19468800385A4A
:102980004E000004000DA853984200DD034690421B
:1029900000DA0246491C89B28029EFD30398002847
:1029A0001ED06148C17889000818416B10460E4658
:1029B000FDF79EFB5A4A0421515E00B2884203DAB9
:1029C0000A1A012A00D10846464331B20491FEF7A3
:1029D0006DFF742000260827059004E08CE04EE08F
:1029E00000200146F2E750487A00C17889000818B3
:1029F000416A8248825E0498101AFDF779FB80B222
:102A0000302800D930203021081A05062D0E04D0B8
:102A1000F0B201222946FEF737FB002E1CD0601CC5
:102A200085420CD9641C07E038E0E1B2F0B2012223
:102A3000FEF72AFB641CA4B2AC42F6D30CE0681C7F
:102A4000844209D9641EA4B2AC4205D9E1B2F0B205
:102A50000122FEF719FBF5E7761C7F1C0598BFB233
:102A60002C46B6B28742BEDBFEF7CEFB01A9684614
:102A7000FEF72AFE2C48407800282ED03CE0624D1C
:102A800028495E4B002082008A58460052082A409E
:102A9000401C80B29A538028F5D346E7574A03205A
:102AA0004100515EB14200DD0E46401C80B240281C
:102AB000F6D344E7A81CC1B2F8B20122FEF7E4FA4B
:102AC0006D1CADB22F2DF5D3641CA4B2402C00D2E6
:102AD00039E73046FEF790FEC6E7002410484B4D1C
:102AE00044706A0421462846FDF7D4FF012292066D
:102AF00021462846FDF7CEFF09488178002900D1FC
:102B000093E60024414D84706A0421462846FDF76F
:102B1000C1FF0122920621462846FDF7BBFF84E64D
:102B20000000001064000010640500105000001048
:102B3000FFFFFF0000E000E004ED00E040420F0076
:102B40004C5043383234204D696E692053636F70A6
:102B5000652053746172742E204D43552072756E3A
:102B60002040202564204D487A2E0D0A00000000E8
:102B700030393A32303A3235000000004175672072
:102B800032322032303230004669726D77617265C0
:102B90002076657273696F6E2025732E20427569E9
:102BA0006C6420402025732C2025732E0D0A000014
:102BB000DC050000766F6C74207363616C653A20ED
:102BC000256620562E0D0A0074696D6520736361B9
:102BD0006C653A2025642075732E0D0A00000000F4
:102BE0006368616E6E656C2073656C6563743A2012
:102BF00025642E0D0A0000000000A02E64040010C1
:102C00000080FFFFFFFFFF7FF87F000000C0014052
:102C100070B504460220FEF7F1F80020FEF714F824
:102C20000020FEF707F80F480169012101618020AB
:102C3000FEF7D4F8A179207AC906C90E8007400EA4
:102C4000094D0143A9608020FEF7D8F8E868C00765
:102C5000C00FFBD004496089403188630320FDF731
:102C6000E9FF70BD00000440008004400000000047
:102C70000080C0402020206060E0C0C08000008054
:102C800080800000808080000080800000000000C4
:102C90000000000000000000000000000000000034
:102CA0000000000000000000F8FE030100181C0CEA
:102CB000FCF80000030FFFFF03FFFFFF0E00C1F150
:102CC000FD0F03010000000080C0C00000000000F4
:102CD000000000000000000000000080C0C00000F4
:102CE0000000030387C6C404060301000080E07CE3
:102CF0003F0F00FFFFFF007EFFFF8000000000C0CD
:102D0000C060F0F9F90080C060F8F8F83018F8F801
:102D1000F00080C060F0F9F90080000000000101BF
:102D20000303020202030101000000000003030389
:102D30000000010303030202030100000303030375
:102D4000010000030301000003030303010000036B
:102D5000030303010000C0E02010101030303020C9
:102D600020203010000000000000000000000000E3
:102D70000000000000000000000000000000000053
:102D80000000000000000000000000000000000043
:102D90000000070F1E1C183830307070E0E0C08053
:102DA0000000000000000000000000000000000023
:102DB0000000000000000000000000000000000013
:102DC0000000000000000000000000003C7EFFC387
:102DD00091B121333E1C8080C0F17F1F060020701E
:102DE000F8FC8C040C8CCC60F0F8F88C0404CCFC5F
:102DF000F8C06030FCFCFC0C048CFCFCF0C060F003
:102E0000F8FCEC7C3C9CC0000000000001010101CA
:102E100001010101000000000000000000010101AB
:102E2000010100000001010101010101010060C078
:102E3000FF7F3F01010101010100000001010101CB
:102E400001010000CDCCCC3DCDCCCC3ECDCC4C3F17
:102E50000000803F0A000000140000003200000063
:102E600064000000C8000000F4010000E803000056
:102E7000D0070000C4090000001BB70000000000DC
:102E800000000000C027090090051000C05C15007C
:102E9000F0B31A00200B2000009F2400E03229002C
:102EA000C0C62D0050973100E067350070383900FA
:102EB00000093D004016400080234300C03046001A
:102EC0000C000C00C0000000030001000C00060014
:102ED000C0000000030002000C000400C00000005D
:102EE000030003000C000300C00000000300040006
:102EF0000C000200C0000000030006000C000100EE
:102F0000C000000003000C0018001800C000010001
:102F10000200010018000C00C000010002000200C5
:102F200018000800C000010002000300180006009D
:102F3000C00001000200040018000400C0000100ED
:102F40000200060018000300C00001000200080093
:102F500018000200C000010002000C00180001006F
:102F6000C00001000200180024001200200102002D
:102F70000200020024000C002001020002000300F5
:102F800024000900200102000200040024000600C1
:102F900020010200020006002400040020010200BB
:102FA00002000900240003002001020002000C00BE
:102FB000240002002001020002001200240001008F
:102FC000200102000200240030001800C0000300AD
:102FD0000100020030001000C000030001000300E7
:102FE00030000C00C00003000100040030000800A5
:102FF000C00003000100060030000600C00003000E
:103000000100080030000400C000030001000C00B3
:1030100030000300C0000300010010003000020077
:10302000C00003000100180030000100C0000300D0
:10303000010030003C001E00F0000400010002000E
:103040003C001400F0000400010003003C000F00ED
:10305000F0000400010004003C000C00F00004003B
:10306000010005003C000A00F00004000100060019
:103070003C000600F000040001000A003C000500CE
:10308000F000040001000C003C000400F00004000B
:1030900001000F003C000300F000040001001400D8
:1030A0003C000200F000040001001E003C00010092
:1030B000F000040001003C00480018002001050059
:1030C0000100030048001200200105000100040077
:1030D00048000C002001050001000600480009001E
:1030E000200105000100080048000800200105003B
:1030F00001000900480006002001050001000C0045
:1031000048000400200105000100120048000300EF
:103110002001050001001800480002002001050000
:1031200001002400480001002001050001004800C2
:1031300054001C00A8000600000003005400150005
:10314000A80006000000040054000E00A8000600BD
:103150000000060054000C00A80006000000070054
:1031600054000700A800060000000C0054000600F0
:10317000A800060000000E0054000400A80006008D
:103180000000150054000300A800060000001C0009
:1031900054000200A800060000002A0054000100AC
:1031A000A80006000000540060001800C0000700DE
:1031B0000000040060001000C000070000000600CE
:1031C00060000C00C000070000000800600008005C
:1031D000C000070000000C0060000600C0000700EF
:1031E0000000100060000400C0000700000018008C
:1031F00060000300C0000700000020006000020023
:10320000C00007000000300060000100C00007009F
:10321000000060000000000000000000002F00001F
:1032200000000700070000147F147F1400242A7F89
:103230002A12006264081323003649552250000008
:103240000503000000001C224100000041221C0078
:103250000014083E08140008083E0808000000A0FA
:1032600060000008080808080000606000000020F6
:1032700010080402003E5149453E0000427F4000D4
:10328000004261514946002141454B31001814125A
:103290007F10002745454539003C4A494930000127
:1032A0007109050300364949493600064949291E76
:1032B00000003636000000005636000000081422D8
:1032C00041000014141414140000412214080002D8
:1032D0000151090600324959513E007C1211127CFD
:1032E000007F49494936003E41414122007F41412A
:1032F000221C007F49494941007F09090901003E1C
:103300004149497A007F0808087F0000417F410059
:10331000002040413F01007F08142241007F4040CF
:103320004040007F020C027F007F0408107F003EB7
:103330004141413E007F09090906003E4151215E9D
:10334000007F091929460046494949310001017F9A
:103350000101003F4040403F001F2040201F003F30
:103360004038403F006314081463000708700807E2
:1033700000615149454300007F41410000552A55F5
:103380002A55000041417F00000402010204004070
:103390004040404000000102040000205454547892
:1033A000007F4844443800384444442000384444B2
:1033B000487F00385454541800087E090102001850
:1033C000A4A4A47C007F080404780000447D40008D
:1033D000004080847D00007F102844000000417F71
:1033E0004000007C04180478007C0804047800384D
:1033F0004444443800FC242424180018242418FCD5
:10340000007C0804040800485454542000043F443D
:103410004020003C4040207C001C2040201C003C00
:103420004030403C004428102844001CA0A0A07C50
:10343000004464544C441414141414140000000088
:1034400000000000000000000000FC000000000080
:1034500002000000000C020C02000000000000004E
:1034600090D0BCD0BC900003000300001824FE44A0
:103470008C000302070201001824D8B04C8000031E
:1034800000010201C038E438E0000102020102023A
:10349000080600000000000000000000000000F826
:1034A0000402000000010204000204F8000000040D
:1034B000020100009060F860900000000100000030
:1034C0002020FC202000000001000000000000007F
:1034D000000008060000000020202020200000003E
:1034E00000000000000000000000000200000000DA
:1034F0000080601C0200040300000000F8040404C3
:10350000F8000102020201000008FC0000000002B5
:10351000030200001884442418000302020202007F
:1035200008042424D80001020202010040B088FCF3
:1035300080000000000302003C242424C400010297
:1035400002020100F824242CC00001020202010042
:103550000C04E41C0400000003000000D824242410
:10356000D80001020202010038444444F80000037C
:103570000202010000001000000000000200000034
:10358000000020000000000006000000002050881D
:103590000402000000000102909090909000000052
:1035A000000000000002048850200002010000001A
:1035B0001804C4241800000002000000F804E49479
:1035C000F80001020202020000E09CF08000020309
:1035D0000000030204FC2424D800020302020100BC
:1035E000F80404040C0001020202010004FC0404BB
:1035F000F80002030202010004FC24740C00020320
:103600000202030004FC24740C0002030200000008
:10361000F0080444CC4000010202010004FC202018
:10362000FC040203000003020404FC040400020280
:1036300003020200000404FC040406040403000066
:1036400004FC24D00C0402030200030204FC040066
:103650000000020302020203FC3CC03CFC00030029
:103660000300030004FC30C4FC0402030200030056
:10367000F8040404F80001020202010004FC2424FE
:103680001800020302000000F8848404F80001021C
:103690000207050004FC24649800020302000302F0
:1036A000182424448C000302020201000C04FC04D0
:1036B0000C0000020302000004FC0000FC040001F6
:1036C00002020100047C80E01C04000003000000F2
:1036D0001CE03CE01C00000300030000049C609C14
:1036E0000400020300030200041CE01C04000002AA
:1036F000030200000C84641C0400020302020300A5
:103700000000FE020200000007040400000E30C0AA
:103710000000000000010200000202FE00000004A0
:103720000407000000040204000000000000000084
:103730000000000000000808080808080000020057
:1037400000000000000000000040A0A0C000000138
:103750000202030204FC2020C00000030202010058
:1037600000C02020600000010202020000C02024EE
:10377000FC0000010202030200C0A0A0C000000182
:10378000020202000020F8242404000203020200C6
:103790000040A0A0602000070A0A0A0404FC2020C0
:1037A000C0000203020003020020E4000000000247
:1037B00003020000000020E40000080808070000E1
:1037C00004FC80E020200203020003020404FC0049
:1037D0000000020203020200E020E020C00003001B
:1037E0000300030020E02020C000020302000302C7
:1037F00000C02020C00000010202010020E02020C3
:10380000C000080F0A02010000C02020E0000001F3
:10381000020A0F0820E040202000020302000000FE
:103820000060A0A020000002020203000020F82097
:10383000000000000102020020E00020E000000182
:103840000202030220E0208060200000030100004B
:103850006080E08060000003000300002060806062
:10386000200002030003020020E0208060200808FE
:10387000070100000020A0602000000203020200F7
:10388000000020DE0200000000070400000000FF2E
:1038900000000000000F00000002DE200000000415
:1038A0000700000002010204040200000000000002
:1038B0000000000000000000000000000000000008
:1038C000000000F80000000000000033300000009D
:1038D00000100C06100C06000000000000000000A4
:1038E00040C07840C0784000043F04043F04040016
:1038F000007088FC08300000001820FF211E000026
:10390000F008F000E018000000211C031E211E003A
:1039100000F00888700000001E21232419272110C0
:1039200010160E0000000000000000000000000063
:10393000000000E01804020000000007182040000A
:1039400000020418E00000000040201807000000FA
:10395000404080F0804040000202010F010202005E
:10396000000000F0000000000101011F0101010042
:10397000000000000000000080B0700000000000A7
:103980000000000000000000000101010101010130
:1039900000000000000000000030300000000000C7
:1039A000000000008060180400601806010000009C
:1039B00000E010080810E000000F102020100F0099
:1039C000001010F8000000000020203F2020000020
:1039D0000070080808887000003028242221300078
:1039E00000300888884830000018202020110E0080
:1039F0000000C02010F8000000070424243F240029
:103A000000F80888880808000019212020110E00FD
:103A100000E0108888180000000F112020110E000F
:103A200000380808C83808000000003F0000000007
:103A30000070880808887000001C222121221C00C8
:103A400000E010080810E0000000312222110F00F1
:103A5000000000C0C0000000000000303000000086
:103A600000000080000000000000806000000000F6
:103A7000000080402010080000010204081020000F
:103A8000404040404040400004040404040404005A
:103A900000081020408000000020100804020100EF
:103AA000007048080808F0000000003036010000EF
:103AB000C030C828E810E0000718272423140B00A2
:103AC0000000C038E0000000203C2302022738201C
:103AD00008F8888888700000203F202020110E0000
:103AE000C0300808080838000718202020100800F7
:103AF00008F808080810E000203F202020100F00E0
:103B000008F88888E8081000203F202023201800AB
:103B100008F88888E8081000203F20000300000013
:103B2000C03008080838000007182020221E0200B4
:103B300008F808000008F808203F210101213F2073
:103B4000000808F8080800000020203F202000009E
:103B500000000808F8080800C08080807F0000008E
:103B600008F888C028180800203F200126382000C7
:103B700008F8080000000000203F2020202030002E
:103B800008F8F800F8F80800203F003F003F200048
:103B900008F830C00008F808203F200007183F0050
:103BA000E01008080810E0000F10202020100F007F
:103BB00008F808080808F000203F21010101000072
:103BC000E01008080810E0000F18242438504F00B7
:103BD00008F8888888887000203F2000030C302077
:103BE00000708808080838000038202121221C00B5
:103BF000180808F8080818000000203F20000000FE
:103C000008F808000008F808001F202020201F00E6
:103C10000878880000C83808000007380E01000046
:103C2000F80800F80008F800033C0700073C030010
:103C3000081868808068180820302C03032C302076
:103C40000838C800C83808000000203F20000000E5
:103C500010080808C838080020382621202018003D
:103C6000000000FE020202000000007F4040400011
:103C7000000C30C000000000000000010638C00049
:103C800000020202FE000000004040407F000000F1
:103C90000000040202020400000000000000000016
:103CA0000000000000000000808080808080808014
:103CB00000020204000000000000000000000000FC
:103CC00000008080808000000019242222223F20F2
:103CD00008F8008080000000003F112020110E0035
:103CE0000000008080800000000E112020201100C4
:103CF000000000808088F800000E112020103F2076
:103D00000000808080800000001F222222221300F9
:103D1000008080F0888888180020203F2020000044
:103D20000000808080808000006B949494936000F9
:103D300008F8008080800000203F210000203F2004
:103D400000809898000000000020203F2020000004
:103D5000000000809898000000C08080807F0000F4
:103D600008F8000080808000203F24022D302000D1
:103D7000000808F8000000000020203F202000007C
:103D80008080808080808000203F20003F20003F96
:103D90008080008080800000203F210000203F20A4
:103DA0000000808080800000001F202020201F0055
:103DB000808000808000000080FFA12020110E0084
:103DC0000000008080808000000E112020A0FF8075
:103DD000808080008080800020203F212000010022
:103DE0000000808080808000003324242424190077
:103DF000008080E0808000000000001F2020000084
:103E00008080000000808000001F202020103F20C4
:103E1000808080000080808000010E300806010054
:103E200080800080008080800F300C030C300F00F9
:103E300000808000808080000020312E0E31200024
:103E4000808080000080808080818E701806010054
:103E500000808080808080000021302C2221300072
:103E600000000000807C020200000000003F404093
:103E700000000000FF00000000000000FF00000044
:103E80000002027C800000000040403F0000000073
:103E9000000601010202040400000000000000000E
:103EA0000000000000000000000000000000000012
:103EB0000000000000000000000000000000000002
:103EC000000000000000000000F0F0F00000000022
:103ED0000000000000017F01000000000000000061
:103EE000001C1C1C0000000000008060301C8C6066
:103EF000301C0C000000000000000000000000006A
:103F0000000000000000000000000000000000E0D1
:103F10000000000000E000000086E69F868686869E
:103F2000E69F860000011F01010101011F01010040
:103F3000000080C06020F820E0C0000000000307FF
:103F40000C18FF70E18100000000070F10107F10B7
:103F50000F0700008060206080000000E02000006B
:103F60000F3020309F70DC371030C0000000100E82
:103F700003000718101807000000C02020E0C00050
:103F80000000000080E01F38E88703C43C04000004
:103F9000070F1810100B070D1010080000808C4C34
:103FA00038000000000000000000000000000000D9
:103FB0000000000000000000000000000000000001
:103FC00000000000000080E0300804000000000055
:103FD00000FEFF0100000000000000000000030FD1
:103FE0001820400000040830E080000000000000BD
:103FF0000000000001FFFE0000000000004020184B
:104000000F03000000000000000000000000C000DE
:1040100000000000004266663C18FF183C666642DD
:10402000000000000000030000000000000000008D
:104030000000800000000000001010101010FF10A1
:10404000101010100000000000000300000000002D
:104050000000000000000000000000000000000060
:10406000000000000000000000808C4C38000000C0
:104070000000000000000000000000000000000040
:104080000010101010101010101010000000000090
:104090000000000000000000000000000000000020
:1040A0000000000000000000000000000000000010
:1040B00000001C1C1C0000000000000000000000AC
:1040C00000000000E0380C000000000080701C03BD
:1040D000000000000060380E010000000000000039
:1040E000000080C060202060C080000000FEFF0152
:1040F0000000000001FFFE000001070E181010185C
:104100000E0701000000808080C0E0000000000079
:104110000000000000FFFF00000000000000101081
:10412000101F1F1010100000008040202020206071
:10413000C080000000030300804020381F070000FB
:10414000001C1A1918181818181F00000080C02029
:10415000202060C080000000000303001010182F12
:10416000E780000000070F10101010180F07000064
:10417000000000000000C0E0F000000000C0B088B7
:10418000868180FFFF808000000000000010101F6B
:104190001F1010000000E060606060606060000060
:1041A00000003F1008080818F0E0000000070B109E
:1041B0001010101C0F030000000080C040202020C1
:1041C000E0C0000000FCFF211008080818F0E00023
:1041D0000001070C18101010080F03000000C0E0C9
:1041E0006060606060E06000000003000000E018B4
:1041F0000700000000000000001F1F00000000007A
:104200000080C0602020202060C080000087EF2C4C
:104210001818303068CF830000070F0810101010F6
:10422000180F07000000C0C020202020C080000020
:10423000001F3F604040402010FFFE0000000C1CAB
:10424000101010080F030000000000000000000024
:104250000000000000000000000E0E0E0000000034
:1042600000000000001C1C1C0000000000000000FA
:10427000000000000000000000000000000C0C0026
:10428000000000000000000000583800000000009E
:1042900000000000000000804020100000001028F6
:1042A0004482010000000000000000000000010244
:1042B00004081000000000000000000000000000E2
:1042C00000848484848484848484840000000000C6
:1042D00000000000000000000000102040800000EE
:1042E00000000000000000000000018244281000CF
:1042F00000001008040201000000000000C020209F
:104300001010101030E0C0000003030000F010088F
:104310000C070300000000001C1C1C000000000033
:10432000000000C0406020202040C00000FCFF01D1
:10433000F00E03C1FE03807F0001070E081111106B
:10434000110904020000000080E0E000000000000D
:104350000000807C4340477FF880000010181F1049
:1043600000000000131F1C1020E0E020202020602F
:10437000C080000000FFFF10101010182FE7800011
:10438000101F1F1010101010180F0700000080C021
:10439000402020202060E00000FCFF010000000021
:1043A000000001000001070E18101010080403009F
:1043B00020E0E02020202040C080000000FFFF001F
:1043C0000000000001FFFE00101F1F101010180851
:1043D0000E07010020E0E020202020202060800047
:1043E00000FFFF101010107C00000000101F1F10B5
:1043F000101010101018060020E0E02020202020CF
:104400006060800000FFFF101010107C00000100B1
:10441000101F1F100000000000000000000080C0FE
:104420006020202040E0000000FCFF010000404030
:10443000C0C140400001070E181010100F0F0000FF
:1044400020E0E0200000000020E0E02000FFFF105E
:104450001010101010FFFF00101F1F1000000000B0
:10446000101F1F100000202020E0E020202000006E
:104470000000000000FFFF0000000000000010101E
:10448000101F1F101010000000000000202020E06E
:10449000E020202000000000000000FFFF000000DE
:1044A0000060E0808080C07F3F00000020E0E020CE
:1044B000000020A06020200000FFFF30187CE3C037
:1044C00000000000101F1F10000001131F1C181017
:1044D00020E0E020000000000000000000FFFF00DE
:1044E0000000000000000000101F1F10101010102E
:1044F0001018060020E0E0E000000000E0E0E0200E
:1045000000FF013FFEC0E01E01FFFF00101F100072
:10451000031F0300101F1F1020E0E0C00000000078
:104520000020E02000FF0003071C78E08000FF006F
:10453000101F100000000000030F1F00000080C0CB
:1045400060202060C080000000FEFF01000000002D
:1045500000FFFE000001070E181010180C070100E4
:1045600020E0E0202020202060C0800000FFFF200D
:1045700020202020301F0F00101F1F1000000000FF
:1045800000000000000080C060202060C0800000AB
:1045900000FEFF010000000000FFFE000001070E0A
:1045A0001111133C7C67210020E0E0202020202016
:1045B00060C0800000FFFF101030F0D0080F07002F
:1045C000101F1F10000000030F1C10100080C0609F
:1045D000202020204040E00000070F0C1818303049
:1045E00060E08100001F0C0810101010180F070069
:1045F0008060202020E0E02020206080010000007A
:1046000000FFFF000000000100000000101F1F104D
:104610000000000020E0E020000000000020E0207A
:1046200000FFFF00000000000000FF0000070F185F
:1046300010101010100807002060E0E020000000BB
:1046400020E060200000077FF88000807C030000ED
:1046500000000000071F1C070000000020E0E02011
:1046600000E0E0200020E0200007FFF8E01FFFFC52
:10467000E01F00000000031F0300011F03000000F3
:10468000002060E0A0000020E060200000000003A7
:104690008F7CF8C6010000000010181E13000117DF
:1046A0001F1810002060E0E02000000020E06020E3
:1046B000000001073EF8E0180700000000000010AD
:1046C000101F1F101000000000806020202020A07C
:1046D000E0E0200000000000C0F03E0F03000000FA
:1046E00000101C1F1710101010180600000000000A
:1046F00000FC0404040404000000000000FF0000AB
:104700000000000000000000007F404040404000EA
:10471000000010E0000000000000000000000000A9
:10472000031C608000000000000000000000000387
:104730000C70800000000404040404FC000000006D
:1047400000000000000000FF0000000000004040EA
:104750004040407F0000000000000010080C040CE6
:104760000810000000000000000000000000000031
:104770000000000000000000000000000000000039
:104780000000000000000000000000000000000029
:104790000000000080808080808080808080808019
:1047A00000000004040808000000000000000000F1
:1047B00000000000000000000000000000000000F9
:1047C00000000000000000000000000000000000E9
:1047D000000098D844642424FCF80000000F1F183F
:1047E000101010081F1F10180020E0F0000000003B
:1047F000000000000000FFFF180804040CF8F0009F
:1048000000001F0F18101010180F03000000000008
:10481000000000000000000000E0F8180404043C60
:104820003800000000030F0C1010101008060000E4
:104830000000000000000020E0F0000000E0F81C94
:1048400004040408FFFF000000030F1810101008F4
:104850001F0F080000000000000000000000000022
:104860000000E0F8484444444C7870000000030F16
:104870000C181010100804000000000080C0602018
:1048800020E0C00000040404FFFF0404040400004E
:10489000000010101F1F101010000000000000008A
:1048A0000000000000000000000070F88C04048C80
:1048B000F874040C007076CF8D8D8D89C8787000E7
:1048C0000020E0F000000000000000000000FFFFFA
:1048D00008040404FCF8000000101F1F1000001062
:1048E0001F1F1000000000000060600000000000BA
:1048F0000000040404FCFC00000000000000101094
:10490000101F1F10101000000000000000000060C9
:104910006000000000000000040404FCFC00000033
:104920000000C0C08080C07F3F0000000020E0F099
:1049300000000000000000000000FFFF80C0F41C29
:104940000404000000101F1F1100031F1C101000A2
:104950000000202020E0F000000000000000000027
:1049600000FFFF000000000000001010101F1F10CB
:104970001010000000000000000000000000000017
:1049800004FCFC0804FCFC0804FCFC00101F1F10C5
:10499000001F1F10001F1F1000000000000000007B
:1049A000000000000004FCFC08080404FCF80000FF
:1049B00000101F1F100000101F1F1000000000003B
:1049C000000000000000000000E0F0180C04040CDF
:1049D00018F0E00000030F0C101010100C0F030073
:1049E0000000000000000000000000000004FCFCCB
:1049F000080404040CF8F0000080FFFF88901010F9
:104A00001C0F030000000000000000000000000078
:104A100000E0F81C04040408F8FC000000030F1870
:104A200010109088FFFF80000000000000000000D0
:104A300000000000040404FCFC100804040C0C003A
:104A40001010101F1F1010100000000000000000C8
:104A5000000000000000000000003078CCC4848416
:104A6000840C1C0000001E1810101011190F0600F5
:104A70000000000000C0000000000000000404046A
:104A8000FFFF040404000000000000000F1F1010CE
:104A9000100C0000000000000000000000000000FA
:104AA0000004FCFE00000004FCFE000000000F1FDC
:104AB000181010081F0F0800000000000000000080
:104AC0000000000000040C3CFCC40000C43C0C04CA
:104AD00000000000010F1E0E010000000000000099
:104AE0000000000000000000043CFCC400E47CFC6A
:104AF00084807C040000071F070000071F070000D8
:104B00000000000000000000000000000004041C81
:104B10007CE4C0341C0404000010101C1601131F98
:104B20001C18100000000000000000000000000041
:104B300000040C3CFCC400C43C0404000000C08021
:104B4000C1370E010000000000000000000000005E
:104B50000000000000001C0404C4F47C1C040000DD
:104B60000000101C1F17111010180E00000000008C
:104B7000000000F80C04000000000000001028EF06
:104B800000000000000000000000003F6040000046
:104B9000000000000000FF00000000000000000016
:104BA0000000FF0000000000000000000000FF0007
:104BB000000000000000040CF800000000000000ED
:104BC00000000000EF28100000000000000040601E
:104BD0003F00000000000000001806020204081058
:104BE000202030080000000000000000000000004D
:104BF0000000000000000000000000000000F010B5
:104C0000101010FF10101010F000000000000F0432
:104C1000040404FF040404040F0000004040405F4B
:104C2000555555755555555F404040000040200F83
:104C3000094989790909090F2040000000FE024254
:104C40004ACA4A4ACA4A4A4202FE000000FF40508D
:104C50004C4340404F50505C40FF00000000F8883B
:104C6000888888FF88888888F800000000001F086E
:104C70000808087F888888889F80F0008082828268
:104C8000828282E2A2928A868280800000000000F6
:104C90000040807F0000000000000000101010FFA6
:104CA000109008888888FF88888808000444827FDC
:104CB00001808040432C1028468180000010101095
:104CC00010D030FF30D0121C101000001008040269
:104CD000010000FF00000102040810000404048425
:104CE000E43C2724242424E40404040004020100F6
:104CF000FF0909090949897F0000000000FE225AC6
:104D00008600FE9292929292FE00000000FF04083C
:104D10000700FF4020030C14224140000080402087
:104D20001806800007182040800000000100207055
:104D30002826212020243860000101000010129252
:104D40009292929292121202FE0000000000003F26
:104D5000101010103F0040807F000000000000C0D5
:104D600080808080808080FC84808080808080C083
:104D7000C0000000000000FF7F404040404040FF76
:104D800040404040404040FF7F00000000000000E5
:104D9000000000000000007F700000000000000024
:104DA0000000000000000000000000000000000003
:104DB000000000FCF80000000000000000000000FF
:104DC0000000000000000000FFFE020202020202DA
:104DD000020202FFFF020202020202020202FF03BB
:104DE00000000000000000001F1F0404040404046D
:104DF000040404FFFF0404040404040404041F0066
:104E000000000000000000000000000000000000A2
:104E10000000007F3F0000000000000000000000D4
:104E20000000000000000000000000000000000082
:104E30000000000000000000000000000000000072
:104E400000F8F8F0F0702000000000000000000002
:104E50000000000000000000000000000000000052
:104E600000000000000000000000000080000000C2
:104E70000000000000000000000000000000000032
:104E800000FFFFFFFF000000000000000000000026
:104E90000000000000000000808000000000000012
:104EA00000000000000000000000000000FFFFFE06
:104EB0000606060606060606060606060606060692
:104EC00006FFFFFFFF06060606060606060606069E
:104ED00006060606060606FFFFFFFF0702000000A3
:104EE00000000000000000000000000000FFFFFFC5
:104EF00000000000000000000000000000000000B2
:104F000000FFFFFFFF0000000000000000000000A5
:104F100000000000000000FFFFFFFF000000000095
:104F200000000000000000000000000000FFFFFF84
:104F300018181818181818181818181818181818F1
:104F400018FFFFFFFF181818181818181818181845
:104F500018181818181818FFFFFFFF0000000000AD
:104F6000000000000000000000000000020101003D
:104F70000000000000000000000000000000000031
:104F800000FFFFFFFF000000000000000000000025
:104F9000000000000000000101000000000000000F
:104FA0000000000000000000000000000000000001
:104FB00000000000000000000000000000000000F1
:104FC00000FFFFFFFF0000000000000000000000E5
:104FD00000000000000000000000000000000000D1
:104FE00000000000000000000000000000000000C1
:104FF00000000000000000000000000000000000B1
:10500000001F1F0F0F000000000000000000000044
:105010000000000000000000000000000000000090
:10502000000000000004000200060001000500036B
:1050300000078000800480028006800180058003D4
:105040008007400040044002400640014005400304
:105050004007C000C004C002C006C001C005C003B4
:10506000C007200020042002200620012005200384
:105070002007A000A004A002A006A001A005A00394
:10508000A0076000600460026006600160056003C4
:105090006007E000E004E002E006E001E005E00374
:1050A000E007100010041002100610011005100394
:1050B00010079000900490029006900190059003D4
:1050C0009007500050045002500650015005500304
:1050D0005007D000D004D002D006D001D005D003B4
:1050E000D007300030043002300630013005300384
:1050F0003007B000B004B002B006B001B005B00394
:10510000B0077000700470027006700170057003C3
:105110007007F000F004F002F006F001F005F00373
:10512000F00708000804080208060801080508033B
:105130000807880088048802880688018805880393
:1051400088074800480448024806480148054803C3
:105150004807C800C804C802C806C801C805C80373
:10516000C807280028042802280628012805280343
:105170002807A800A804A802A806A801A805A80353
:10518000A807680068046802680668016805680383
:105190006807E800E804E802E806E801E805E80333
:1051A000E807180018041802180618011805180353
:1051B0001807980098049802980698019805980393
:1051C00098075800580458025806580158055803C3
:1051D0005807D800D804D802D806D801D805D80373
:1051E000D807380038043802380638013805380343
:1051F0003807B800B804B802B806B801B805B80353
:10520000B807780078047802780678017805780382
:105210007807F800F804F802F806F801F805F80332
:10522000F80704000404040204060401040504034E
:1052300004078400840484028406840184058403B2
:1052400084074400440444024406440144054403E2
:105250004407C400C404C402C406C401C405C40392
:10526000C407240024042402240624012405240362
:105270002407A400A404A402A406A401A405A40372
:10528000A4076400640464026406640164056403A2
:105290006407E400E404E402E406E401E405E40352
:1052A000E407140014041402140614011405140372
:1052B00014079400940494029406940194059403B2
:1052C00094075400540454025406540154055403E2
:1052D0005407D400D404D402D406D401D405D40392
:1052E000D407340034043402340634013405340362
:1052F0003407B400B404B402B406B401B405B40372
:10530000B4077400740474027406740174057403A1
:105310007407F400F404F402F406F401F405F40351
:10532000F4070C000C040C020C060C010C050C0319
:105330000C078C008C048C028C068C018C058C0371
:105340008C074C004C044C024C064C014C054C03A1
:105350004C07CC00CC04CC02CC06CC01CC05CC0351
:10536000CC072C002C042C022C062C012C052C0321
:105370002C07AC00AC04AC02AC06AC01AC05AC0331
:10538000AC076C006C046C026C066C016C056C0361
:105390006C07EC00EC04EC02EC06EC01EC05EC0311
:1053A000EC071C001C041C021C061C011C051C0331
:1053B0001C079C009C049C029C069C019C059C0371
:1053C0009C075C005C045C025C065C015C055C03A1
:1053D0005C07DC00DC04DC02DC06DC01DC05DC0351
:1053E000DC073C003C043C023C063C013C053C0321
:1053F0003C07BC00BC04BC02BC06BC01BC05BC0331
:10540000BC077C007C047C027C067C017C057C0360
:105410007C07FC00FC04FC02FC06FC01FC05FC0310
:10542000FC07020002040202020602010205020356
:1054300002078200820482028206820182058203C0
:1054400082074200420442024206420142054203F0
:105450004207C200C204C202C206C201C205C203A0
:10546000C207220022042202220622012205220370
:105470002207A200A204A202A206A201A205A20380
:10548000A2076200620462026206620162056203B0
:105490006207E200E204E202E206E201E205E20360
:1054A000E207120012041202120612011205120380
:1054B00012079200920492029206920192059203C0
:1054C00092075200520452025206520152055203F0
:1054D0005207D200D204D202D206D201D205D203A0
:1054E000D207320032043202320632013205320370
:1054F0003207B200B204B202B206B201B205B20380
:10550000B2077200720472027206720172057203AF
:105510007207F200F204F202F206F201F205F2035F
:10552000F2070A000A040A020A060A010A050A0327
:105530000A078A008A048A028A068A018A058A037F
:105540008A074A004A044A024A064A014A054A03AF
:105550004A07CA00CA04CA02CA06CA01CA05CA035F
:10556000CA072A002A042A022A062A012A052A032F
:105570002A07AA00AA04AA02AA06AA01AA05AA033F
:10558000AA076A006A046A026A066A016A056A036F
:105590006A07EA00EA04EA02EA06EA01EA05EA031F
:1055A000EA071A001A041A021A061A011A051A033F
:1055B0001A079A009A049A029A069A019A059A037F
:1055C0009A075A005A045A025A065A015A055A03AF
:1055D0005A07DA00DA04DA02DA06DA01DA05DA035F
:1055E000DA073A003A043A023A063A013A053A032F
:1055F0003A07BA00BA04BA02BA06BA01BA05BA033F
:10560000BA077A007A047A027A067A017A057A036E
:105610007A07FA00FA04FA02FA06FA01FA05FA031E
:10562000FA0706000604060206060601060506033A
:10563000060786008604860286068601860586039E
:1056400086074600460446024606460146054603CE
:105650004607C600C604C602C606C601C605C6037E
:10566000C60726002604260226062601260526034E
:105670002607A600A604A602A606A601A605A6035E
:10568000A60766006604660266066601660566038E
:105690006607E600E604E602E606E601E605E6033E
:1056A000E60716001604160216061601160516035E
:1056B000160796009604960296069601960596039E
:1056C00096075600560456025606560156055603CE
:1056D0005607D600D604D602D606D601D605D6037E
:1056E000D60736003604360236063601360536034E
:1056F0003607B600B604B602B606B601B605B6035E
:10570000B60776007604760276067601760576038D
:105710007607F600F604F602F606F601F605F6033D
:10572000F6070E000E040E020E060E010E050E0305
:105730000E078E008E048E028E068E018E058E035D
:105740008E074E004E044E024E064E014E054E038D
:105750004E07CE00CE04CE02CE06CE01CE05CE033D
:10576000CE072E002E042E022E062E012E052E030D
:105770002E07AE00AE04AE02AE06AE01AE05AE031D
:10578000AE076E006E046E026E066E016E056E034D
:105790006E07EE00EE04EE02EE06EE01EE05EE03FD
:1057A000EE071E001E041E021E061E011E051E031D
:1057B0001E079E009E049E029E069E019E059E035D
:1057C0009E075E005E045E025E065E015E055E038D
:1057D0005E07DE00DE04DE02DE06DE01DE05DE033D
:1057E000DE073E003E043E023E063E013E053E030D
:1057F0003E07BE00BE04BE02BE06BE01BE05BE031D
:10580000BE077E007E047E027E067E017E057E034C
:105810007E07FE00FE04FE02FE06FE01FE05FE03FC
:10582000FE070100FF7F0000FF7F3200FF7F650061
:10583000FF7F9700FF7FC900FF7FFB00FF7F2E01E6
:10584000FE7F6001FE7F9201FD7FC401FC7FF701B6
:10585000FB7F2902FA7F5B02F97F8D02F87FC0028D
:10586000F77FF202F67F2403F57F5603F47F890366
:10587000F27FBB03F17FED03EF7F1F04ED7F520446
:10588000EC7F8404EA7FB604E87FE804E67F1B052A
:10589000E47F4D05E27F7F05E07FB105DD7FE30515
:1058A000DB7F1606D97F4806D67F7A06D37FAC0603
:1058B000D17FDE06CE7F1107CB7F4307C87F7507F8
:1058C000C57FA707C27FD907BF7F0C08BC7F3E08F2
:1058D000B97F7008B57FA208B27FD408AE7F0609F1
:1058E000AB7F3809A77F6B09A37F9D09A07FCF09F4
:1058F0009C7F010A987F330A947F650A907F970AFC
:105900008B7FC90A877FFB0A837F2D0B7E7F600B0D
:105910007A7F920B757FC40B717FF60B6C7F280C1E
:10592000677F5A0C627F8C0C5D7FBE0C587FF00C39
:10593000537F220D4E7F540D497F860D437FB80D56
:105940003E7FEA0D387F1C0E337F4E0E2D7F800E7A
:10595000277FB20E227FE40E1C7F150F167F470FA4
:10596000107F790F0A7FAB0F037FDD0FFD7E0F10D5
:10597000F77E4110F07E7310EA7EA410E37ED6100D
:10598000DD7E0811D67E3A11CF7E6C11C87E9E1145
:10599000C17ECF11BA7E0112B37E3312AC7E651286
:1059A000A57E96129D7EC812967EFA128E7E2B13CD
:1059B000877E5D137F7E8F13787EC113707EF21316
:1059C000687E2414607E5514587E8714507EB91466
:1059D000487EEA143F7E1C15377E4D152F7E7F15BD
:1059E000267EB1151E7EE215157E14160C7E451618
:1059F000037E7716FB7DA816F27DDA16E97D0B177C
:105A0000E07D3C17D67D6E17CD7D9F17C47DD117E5
:105A1000BA7D0218B17D3318A77D65189E7D961852
:105A2000947DC7188A7DF918817D2A19777D5B19C5
:105A30006D7D8D19637DBE19587DEF194E7D201A3D
:105A4000447D511A3A7D831A2F7DB41A257DE51ABB
:105A50001A7D161B0F7D471B057D781BFA7CA91B41
:105A6000EF7CDA1BE47C0C1CD97C3D1CCE7C6E1CCC
:105A7000C27C9F1CB77CD01CAC7C011DA07C311D5E
:105A8000957C621D897C931D7E7CC41D727CF51DF6
:105A9000667C261E5A7C571E4E7C881E427CB81E91
:105AA000367CE91E2A7C1A1F1E7C4B1F117C7B1F33
:105AB000057CAC1FF97BDD1FEC7B0E20DF7B3E20DD
:105AC000D37B6F20C67B9F20B97BD020AC7B01218C
:105AD0009F7B3121927B6221857B9221787BC32140
